{"abi":[{"type":"constructor","inputs":[{"name":"_token","type":"address","internalType":"contract IERC20"}],"stateMutability":"nonpayable"},{"type":"function","name":"GAME_BLACKJACK","inputs":[],"outputs":[{"name":"","type":"bytes32","internalType":"bytes32"}],"stateMutability":"view"},{"type":"function","name":"GAME_COINFLIP","inputs":[],"outputs":[{"name":"","type":"bytes32","internalType":"bytes32"}],"stateMutability":"view"},{"type":"function","name":"GAME_DICE","inputs":[],"outputs":[{"name":"","type":"bytes32","internalType":"bytes32"}],"stateMutability":"view"},{"type":"function","name":"GAME_HILO","inputs":[],"outputs":[{"name":"","type":"bytes32","internalType":"bytes32"}],"stateMutability":"view"},{"type":"function","name":"GAME_JACKPOT","inputs":[],"outputs":[{"name":"","type":"bytes32","internalType":"bytes32"}],"stateMutability":"view"},{"type":"function","name":"GAME_MINE","inputs":[],"outputs":[{"name":"","type":"bytes32","internalType":"bytes32"}],"stateMutability":"view"},{"type":"function","name":"GAME_PAN","inputs":[],"outputs":[{"name":"","type":"bytes32","internalType":"bytes32"}],"stateMutability":"view"},{"type":"function","name":"GAME_ROULETTE","inputs":[],"outputs":[{"name":"","type":"bytes32","internalType":"bytes32"}],"stateMutability":"view"},{"type":"function","name":"GAME_SLOTS","inputs":[],"outputs":[{"name":"","type":"bytes32","internalType":"bytes32"}],"stateMutability":"view"},{"type":"function","name":"GAME_VIDEOPKER","inputs":[],"outputs":[{"name":"","type":"bytes32","internalType":"bytes32"}],"stateMutability":"view"},{"type":"function","name":"GAME_WAR","inputs":[],"outputs":[{"name":"","type":"bytes32","internalType":"bytes32"}],"stateMutability":"view"},{"type":"function","name":"gameMaxMultiplier","inputs":[{"name":"","type":"bytes32","internalType":"bytes32"}],"outputs":[{"name":"","type":"uint256","internalType":"uint256"}],"stateMutability":"view"},{"type":"function","name":"houseWallet","inputs":[],"outputs":[{"name":"","type":"address","internalType":"address"}],"stateMutability":"view"},{"type":"function","name":"maxBet","inputs":[],"outputs":[{"name":"","type":"uint256","internalType":"uint256"}],"stateMutability":"view"},{"type":"function","name":"minBet","inputs":[],"outputs":[{"name":"","type":"uint256","internalType":"uint256"}],"stateMutability":"view"},{"type":"function","name":"owner","inputs":[],"outputs":[{"name":"","type":"address","internalType":"address"}],"stateMutability":"view"},{"type":"function","name":"playBlackjack","inputs":[{"name":"stake","type":"uint256","internalType":"uint256"},{"name":"seed","type":"uint256","internalType":"uint256"}],"outputs":[{"name":"payout","type":"uint256","internalType":"uint256"},{"name":"playerTotal","type":"uint8","internalType":"uint8"},{"name":"dealerTotal","type":"uint8","internalType":"uint8"},{"name":"playerBlackjack","type":"bool","internalType":"bool"}],"stateMutability":"nonpayable"},{"type":"function","name":"playCoinFlip","inputs":[{"name":"stake","type":"uint256","internalType":"uint256"},{"name":"seed","type":"uint256","internalType":"uint256"},{"name":"guessHeads","type":"bool","internalType":"bool"}],"outputs":[{"name":"payout","type":"uint256","internalType":"uint256"},{"name":"winHeads","type":"bool","internalType":"bool"}],"stateMutability":"nonpayable"},{"type":"function","name":"playDice","inputs":[{"name":"stake","type":"uint256","internalType":"uint256"},{"name":"seed","type":"uint256","internalType":"uint256"},{"name":"betType","type":"uint8","internalType":"uint8"}],"outputs":[{"name":"payout","type":"uint256","internalType":"uint256"},{"name":"d1","type":"uint8","internalType":"uint8"},{"name":"d2","type":"uint8","internalType":"uint8"}],"stateMutability":"nonpayable"},{"type":"function","name":"playHiLo","inputs":[{"name":"stake","type":"uint256","internalType":"uint256"},{"name":"seed","type":"uint256","internalType":"uint256"},{"name":"guessHigher","type":"bool","internalType":"bool"}],"outputs":[{"name":"payout","type":"uint256","internalType":"uint256"},{"name":"firstCard","type":"uint8","internalType":"uint8"},{"name":"nextCard","type":"uint8","internalType":"uint8"}],"stateMutability":"nonpayable"},{"type":"function","name":"playJackpotSpin","inputs":[{"name":"stake","type":"uint256","internalType":"uint256"},{"name":"seed","type":"uint256","internalType":"uint256"}],"outputs":[{"name":"payout","type":"uint256","internalType":"uint256"},{"name":"segment","type":"uint8","internalType":"uint8"}],"stateMutability":"nonpayable"},{"type":"function","name":"playMine","inputs":[{"name":"stake","type":"uint256","internalType":"uint256"},{"name":"seed","type":"uint256","internalType":"uint256"},{"name":"riskLevel","type":"uint8","internalType":"uint8"}],"outputs":[{"name":"payout","type":"uint256","internalType":"uint256"},{"name":"hitMine","type":"bool","internalType":"bool"}],"stateMutability":"nonpayable"},{"type":"function","name":"playPan","inputs":[{"name":"stake","type":"uint256","internalType":"uint256"},{"name":"seed","type":"uint256","internalType":"uint256"}],"outputs":[{"name":"payout","type":"uint256","internalType":"uint256"},{"name":"bucket","type":"uint16","internalType":"uint16"}],"stateMutability":"nonpayable"},{"type":"function","name":"playRoulette","inputs":[{"name":"stake","type":"uint256","internalType":"uint256"},{"name":"seed","type":"uint256","internalType":"uint256"},{"name":"betType","type":"uint8","internalType":"uint8"},{"name":"number","type":"uint8","internalType":"uint8"}],"outputs":[{"name":"payout","type":"uint256","internalType":"uint256"},{"name":"outcome","type":"uint8","internalType":"uint8"}],"stateMutability":"nonpayable"},{"type":"function","name":"playSlots","inputs":[{"name":"stake","type":"uint256","internalType":"uint256"},{"name":"seed","type":"uint256","internalType":"uint256"}],"outputs":[{"name":"payout","type":"uint256","internalType":"uint256"},{"name":"grid","type":"uint8[9]","internalType":"uint8[9]"}],"stateMutability":"nonpayable"},{"type":"function","name":"playVideoPoker","inputs":[{"name":"stake","type":"uint256","internalType":"uint256"},{"name":"seed","type":"uint256","internalType":"uint256"}],"outputs":[{"name":"payout","type":"uint256","internalType":"uint256"},{"name":"ranks","type":"uint8[5]","internalType":"uint8[5]"},{"name":"suits","type":"uint8[5]","internalType":"uint8[5]"},{"name":"handRank","type":"uint8","internalType":"uint8"}],"stateMutability":"nonpayable"},{"type":"function","name":"playWar","inputs":[{"name":"stake","type":"uint256","internalType":"uint256"},{"name":"seed","type":"uint256","internalType":"uint256"}],"outputs":[{"name":"payout","type":"uint256","internalType":"uint256"},{"name":"playerCard","type":"uint8","internalType":"uint8"},{"name":"dealerCard","type":"uint8","internalType":"uint8"}],"stateMutability":"nonpayable"},{"type":"function","name":"setGameMaxMultiplier","inputs":[{"name":"gameId","type":"bytes32","internalType":"bytes32"},{"name":"maxMul","type":"uint256","internalType":"uint256"}],"outputs":[],"stateMutability":"nonpayable"},{"type":"function","name":"setHouseWallet","inputs":[{"name":"_houseWallet","type":"address","internalType":"address"}],"outputs":[],"stateMutability":"nonpayable"},{"type":"function","name":"setLimits","inputs":[{"name":"_minBet","type":"uint256","internalType":"uint256"},{"name":"_maxBet","type":"uint256","internalType":"uint256"}],"outputs":[],"stateMutability":"nonpayable"},{"type":"function","name":"token","inputs":[],"outputs":[{"name":"","type":"address","internalType":"contract IERC20"}],"stateMutability":"view"},{"type":"function","name":"transferOwnership","inputs":[{"name":"newOwner","type":"address","internalType":"address"}],"outputs":[],"stateMutability":"nonpayable"},{"type":"event","name":"GameMaxMultiplierUpdated","inputs":[{"name":"gameId","type":"bytes32","indexed":true,"internalType":"bytes32"},{"name":"maxMul","type":"uint256","indexed":false,"internalType":"uint256"}],"anonymous":false},{"type":"event","name":"GamePlayed","inputs":[{"name":"gameId","type":"bytes32","indexed":true,"internalType":"bytes32"},{"name":"player","type":"address","indexed":true,"internalType":"address"},{"name":"stake","type":"uint256","indexed":false,"internalType":"uint256"},{"name":"payout","type":"uint256","indexed":false,"internalType":"uint256"},{"name":"random","type":"uint256","indexed":false,"internalType":"uint256"},{"name":"aux1","type":"uint256","indexed":false,"internalType":"uint256"},{"name":"aux2","type":"uint256","indexed":false,"internalType":"uint256"}],"anonymous":false},{"type":"event","name":"HouseWalletUpdated","inputs":[{"name":"houseWallet","type":"address","indexed":true,"internalType":"address"}],"anonymous":false},{"type":"event","name":"LimitsUpdated","inputs":[{"name":"minBet","type":"uint256","indexed":false,"internalType":"uint256"},{"name":"maxBet","type":"uint256","indexed":false,"internalType":"uint256"}],"anonymous":false},{"type":"event","name":"OwnershipTransferred","inputs":[{"name":"previousOwner","type":"address","indexed":true,"internalType":"address"},{"name":"newOwner","type":"address","indexed":true,"internalType":"address"}],"anonymous":false}],"bytecode":{"object":"0x60a03461029957601f6200349f38819003918201601f191683019291906001600160401b0384118385101761029d5781602092849260409687528339810103126102995751906001600160a01b03821682036102995760fa903360018060a01b03195f5416175f55805192335f7f8be0079c531659141344cd1fd0a4f28419497f9722a3daafe3b4186f6b6457e08180a360018055608052670de0b6b3a7640000600355674563918244f400006004557fd879501ed9641c68023ff6b947b22aa19c58e11861da57545295844196dba47a5f52600560205260c8815f20557ff5beda5446b36b03f1b8a0e4496f3673d5f19abe058bce9589f7a81a88b517785f5281815f20557f41541f350c1da9780d719f9ebc2dd9d5883bf8c8df895243a1696bede4a708c05f52610fa080825f20557f3b985d08128ef7b25e693a611fb5ae6f2d2b2974adbec7deb83c4f95c2562e6b5f5280825f20557f0fdaa1ecfa8570d316df2289076ceb445ffc8958d809bb5f680d13e30b647cbf5f5261138880835f20557f8d8e6987fb3617c00abdd68d6c1f7eac28b7f9f96b25367e9b65dacaa0914a8b5f526109c4835f20557fe2412dc479e6064d21b6e3d02d1bbfa8739e73e4fcafe6f5c217042f886578fe5f5261012c835f20557fdeaf26d9fc1b1d46e61edad22cef78a6be450224dcf68032c852b8506f9ef13a5f52825f20557f458fc043506cc6fea16e7daa38390499ef978846d88dd78fe56678ac9de794445f52815f20557fdaddb616f5c7de77d0634f27951728c5f98524b1773569c8f3a384fa1dc584455f52612710815f20557fc0f623b41da047e1e0c8f5bc36e299fb81a4f7db52bf26a86dc600e9d249c0945f525f20556131ed9081620002b2823960805181818161018e015281816127b1015261292b0152f35b5f80fd5b634e487b7160e01b5f52604160045260245ffdfe60806040526004361015610011575f80fd5b5f3560e01c80630b3aace914611c6657806310d05f1914611c2c5780631bb19ac114611ae357806321ad0eb5146117ba5780632e54716c1461171f5780632e5b2168146117025780632f6fc8c4146116db57806330d09853146116a157806335d4de51146116345780633a97818f146113e95780633ad61488146112de578063481e1102146111d557806377818f02146111ad57806383d01b00146111595780638da5cb5b1461113257806394dfe4c61461110b5780639619367d146110ee578063a0a64405146110c4578063a307f01f14610fb2578063aa4b76da14610f78578063bac3f6b114610f3e578063c4590d3f14610e79578063ca30f19414610ced578063db45738d14610cb3578063e99258ed1461054a578063f027af7614610510578063f0851144146104d6578063f1e6fa291461049c578063f2fde38b146103ff578063f5a5ef5b146103c5578063f780aed7146101c15763fc0c546a14610179575f80fd5b346101bd575f3660031901126101bd576040517f00000000000000000000000000000000000000000000000000000000000000006001600160a01b03168152602090f35b5f80fd5b346101bd576101cf36611e68565b909160016101e1600282541415611eef565b600281556101ee82612775565b5f1943014381116103b15760405160208101917f8d8e6987fb3617c00abdd68d6c1f7eac28b7f9f96b25367e9b65dacaa0914a8b968784523360601b604084015260548301524060748201524460948201526094815261024d81611f8a565b5190209060068206928184018094116103b15760ff8094169560068460081c068381018091116103b15785169361028485896120a8565b905f9680891680155f146103065750906102fa97600884935f80516020613178833981519152951610156102fe575b6102c16102d1915b87612cdc565b996040519384938c339986611f28565b0390a380556040519384938491604091949360ff80926060860197865216602085015216910152565b0390f35b5060dc6102b3565b8087036103425750906102fa97600684935f805160206131788339815191529516111561033a575b6102c16102d1916102bb565b5060dc61032e565b9092919060020361037e576102fa9760075f8051602061317883398151915294841614610375576102c16102d1916102bb565b5061022661032e565b60405162461bcd60e51b815260206004820152600b60248201526a626164206265745479706560a81b6044820152606490fd5b634e487b7160e01b5f52601160045260245ffd5b346101bd575f3660031901126101bd5760206040517fe2412dc479e6064d21b6e3d02d1bbfa8739e73e4fcafe6f5c217042f886578fe8152f35b346101bd5760203660031901126101bd576004356001600160a01b03818116918290036101bd575f5490811661043681331461203a565b82156104715782907f8be0079c531659141344cd1fd0a4f28419497f9722a3daafe3b4186f6b6457e05f80a36001600160a01b031916175f55005b606460405162461bcd60e51b81526020600482015260046024820152637a65726f60e01b6044820152fd5b346101bd575f3660031901126101bd5760206040517f3b985d08128ef7b25e693a611fb5ae6f2d2b2974adbec7deb83c4f95c2562e6b8152f35b346101bd575f3660031901126101bd5760206040517fd879501ed9641c68023ff6b947b22aa19c58e11861da57545295844196dba47a8152f35b346101bd575f3660031901126101bd5760206040517f8d8e6987fb3617c00abdd68d6c1f7eac28b7f9f96b25367e9b65dacaa0914a8b8152f35b346101bd5761055836611e8c565b60405161056481611fa6565b60a03682376040519161057683611fa6565b60a036843761058a60026001541415611eef565b600260015561059884612775565b5f1943014381116103b1576040519060208201925f8051602061319883398151915284523360601b60408401526054830152406074820152446094820152609481526105e381611f8a565b519020915f5b60058110610c545750604051936101e080860186811067ffffffffffffffff821117610c40576040523686375f5b60058110610c0457506001805b60058110610bdb575b50600e5f925f9260025b60ff808216600e811161069c578161064f828e613146565b5116610666575b50506106619061308f565b610637565b90956106719061308f565b958086168210610693575b87161061068b575b8a80610656565b945084610684565b9450819461067c565b508a915089905087895f60ff89166005148a818a81610bbd575b5015610b23575050506001955b5f96879687918260025b600e60ff82161161075d57600460ff6106e88184168d613146565b511614610755575b600360ff6107008184168d613146565b51161461074d575b600260ff6107188184168d613146565b51161461072e575b6107299061308f565b6106cd565b9a6107389061308f565b9a600b60ff8216106107205760019450610720565b905080610708565b9950896106f0565b50908a92918a8380610b1c575b806109e3575b946108089460ff99946101809c999461081299946107f19d995f1461081b575050505050505f805160206131988339815191525f805160206131788339815191526009976113885b6107c28186612ca2565b604080519687526020870182905286019290925260ff8a166060860152608085015299339390819060a0820190565b0390a3600180556040519687526020870190611ec5565b60c0850190611ec5565b16610160820152f35b83806109dc575b15610854575050505050505f805160206131988339815191525f80516020613178833981519152600897610fa06107b8565b8c16156108875750505050505f805160206131988339815191525f805160206131788339815191526007976109c46107b8565b8b1615159182806109d0575b156108c45750505050505f805160206131988339815191525f805160206131788339815191526006976103846107b8565b156108f457505050505f805160206131988339815191525f805160206131788339815191526005976102586107b8565b15610923575050505f805160206131988339815191525f805160206131788339815191526004976101906107b8565b156109515750505f805160206131988339815191525f8051602061317883398151915260039761012c6107b8565b881660020361098157505f805160206131988339815191525f8051602061317883398151915260029760c86107b8565b156109ac575f805160206131988339815191525f8051602061317883398151915260019760966107b8565b5f805160206131988339815191525f805160206131788339815191525f975f6107b8565b5060018c851614610893565b5082610822565b505f80808080805b60058110610a66575094846101809f9c9792946107f19f9b969460ff9f9a95966108129e996108089d9894610a5e575b5083610a56575b5082610a4e575b5081610a46575b5094999d5094995094999c509499509450610770565b90505f610a30565b91505f610a29565b92505f610a22565b93505f610a1b565b94600a60ff8f88610a769161201c565b511603610a895750600180955b016109eb565b94908d600b60ff610a9a858461201c565b511603610aac57505060018091610a83565b60ff610abe84600c939694959661201c565b511603610acf575060018092610a83565b91928d600d60ff610ae0878461201c565b511603610af257505060018093610a83565b60ff610b0386600e9397949761201c565b511614610b13575b600190610a83565b60019450610b0b565b508261076a565b91979181610baf575b5080610b9d575b80610b8c575b80610b7b575b80610b6a575b80610b59575b156106c357600196506106c3565b50600160ff60a08701511614610b4b565b50600160ff60808701511614610b45565b50600160ff60608701511614610b3f565b50600160ff60408701511614610b39565b50600160ff6101c08701511614610b33565b600e915060ff161488610b2c565b60ff91501660ff82160360ff81116103b15760ff166004148a6106b6565b60ff80610be8838761201c565b51169085511603610bfb57600101610624565b50505f8661062d565b60019060ff80610c14838861201c565b511690610c36610c2f82610c28858d613146565b511661308f565b928a613146565b9116905201610617565b634e487b7160e01b5f52604160045260245ffd5b600b908181029181830414811517156103b15760088201918281116103b15760028691600d60ff9384921c061601908082116103b1576001936003928892610c9c868a61201c565b911690521c16610cac828561201c565b52016105e9565b346101bd575f3660031901126101bd5760206040517fdaddb616f5c7de77d0634f27951728c5f98524b1773569c8f3a384fa1dc584458152f35b346101bd57610cfb36611ea2565b90610d0b60026001541415611eef565b6002600155610d1983612775565b5f1943014381116103b15760405160208101917ff5beda5446b36b03f1b8a0e4496f3673d5f19abe058bce9589f7a81a88b51778938484523360601b6040840152605483015240607482015244609482015260948152610d7881611f8a565b51902091600d8306600281018091116103b15760ff1693600d8460101c0692600284018094116103b15760ff6102fa9416925f9087851180610e72575b15610e165750505f8051602061317883398151915286610dd760c45b85612c55565b96610deb866040519384938b339986611f28565b0390a3600180556040519384938491604091949360ff80926060860197865216602085015216910152565b8785109081610e69575b5015610e4057505f8051602061317883398151915286610dd760c4610dd1565b86808514610e60575b610dd75f8051602061317883398151915292610dd1565b60649150610e49565b90501588610e20565b5080610db5565b346101bd57610e8736611e8c565b610e9b60018060a01b035f5416331461203a565b8115610f1157818110610ee257816040917f4d4981437d0211f9e6843eb024d9ada1fa3a99514d4343d4aece106dd11524bb936003558060045582519182526020820152a1005b60405162461bcd60e51b815260206004820152600760248201526636b0bc1e36b4b760c91b6044820152606490fd5b60405162461bcd60e51b815260206004820152600560248201526406d696e3d360dc1b6044820152606490fd5b346101bd575f3660031901126101bd5760206040517f41541f350c1da9780d719f9ebc2dd9d5883bf8c8df895243a1696bede4a708c08152f35b346101bd575f3660031901126101bd5760206040517ff5beda5446b36b03f1b8a0e4496f3673d5f19abe058bce9589f7a81a88b517788152f35b346101bd57610fc036611ea2565b9091600190610fd3600283541415611eef565b600282555f93610fe282612775565b5f1943014381116103b15760405160208101917fd879501ed9641c68023ff6b947b22aa19c58e11861da57545295844196dba47a938484523360601b604084015260548301524060748201524460948201526094815261104181611f8a565b5190209383851615945f82151587146110b7575b9061106f5f80516020613178833981519152939286612c08565b96156110b05785915b156110a757611091865b6040519384938a339986611f28565b0390a38055604080519182529115156020820152f35b6110915f611082565b5f91611078565b50939550859360c6611055565b346101bd5760203660031901126101bd576004355f526005602052602060405f2054604051908152f35b346101bd575f3660031901126101bd576020600354604051908152f35b346101bd575f3660031901126101bd5760206040515f805160206131588339815191528152f35b346101bd575f3660031901126101bd575f546040516001600160a01b039091168152602090f35b346101bd57608060ff8061118961116f36611e8c565b9061117f60026001541415611eef565b60026001556120db565b93929490916001805560405195865216602085015216604083015215156060820152f35b346101bd575f3660031901126101bd576002546040516001600160a01b039091168152602090f35b346101bd576111e336611e8c565b906111f360026001541415611eef565b600260015561120181612775565b5f1943014381116103b15760405160208101917fdaddb616f5c7de77d0634f27951728c5f98524b1773569c8f3a384fa1dc58445948584523360601b604084015260548301524060748201524460948201526094815261126081611f8a565b5190209060ff600c830616925f805160206131788339815191528461128481612ffa565b946112c36112928787612bbb565b9660405193849389339986919360809360ff9297969560a08501988552602085015260408401521660608201520152565b0390a3600180556040805191825260ff929092166020820152f35b346101bd576112ec36611e8c565b906112fc60026001541415611eef565b600260015561130a81612775565b5f1943014381116103b15760405160208101917fe2412dc479e6064d21b6e3d02d1bbfa8739e73e4fcafe6f5c217042f886578fe948584523360601b604084015260548301524060748201524460948201526094815261136981611f8a565b51902090600d8206600281018091116103b15760ff1692600d8360101c0691600283018093116103b1576102fa9260ff16915f838711156113c057505f8051602061317883398151915286610dd760c35b85612b6e565b868481146113e0575b610dd75f80516020613178833981519152926113ba565b606491506113c9565b346101bd5760803660031901126101bd5760043560443560ff81168082036101bd576064359260ff84168094036101bd5760019161142b600284541415611eef565b6002835561143882612775565b5f194301904382116103b15760405160208101907f41541f350c1da9780d719f9ebc2dd9d5883bf8c8df895243a1696bede4a708c0938483523360601b604083015260243560548301524060748201524460948201526094815261149b81611f8a565b51902095602587069660ff881680985f9480155f146115455750505060248211611517575f80516020613178833981519152928892831461150e575b6114e56114f5915b87612b21565b976040519384938a339986611f28565b0390a380556040805191825260ff929092166020820152f35b50610e106114d7565b60405162461bcd60e51b8152602060048201526006602482015265373ab69f199b60d11b6044820152606490fd5b919350908781036115835750505f805160206131788339815191529261156a83612eb2565b61157b575b6114e56114f5916114df565b5060c461156f565b600281036115c45750505f80516020613178833981519152926115a583612eb2565b15806115bb5761157b576114e56114f5916114df565b5082151561156a565b600381036116055750925f80516020613178833981519152938784151591826115fa575b505061157b576114e56114f5916114df565b16159050878b6115e8565b90925060040361037e575f805160206131788339815191529286808a94161461157b576114e56114f5916114df565b346101bd5760203660031901126101bd576004356001600160a01b03818116918290036101bd57611669905f5416331461203a565b600280546001600160a01b031916821790557f8bc21c8e7cba39f9a57d37b62e15255f3f4f1e3ffe111d43a8d062a59e7aa9eb5f80a2005b346101bd575f3660031901126101bd5760206040517fdeaf26d9fc1b1d46e61edad22cef78a6be450224dcf68032c852b8506f9ef13a8152f35b346101bd575f3660031901126101bd5760206040515f805160206131988339815191528152f35b346101bd575f3660031901126101bd576020600454604051908152f35b346101bd5760403660031901126101bd5760043560243561174a60018060a01b035f5416331461203a565b801561178a5760207f20af119125d1b92b98f9cde065cd09b23637e818421c0b1172318dba1b6228ae91835f52600582528060405f2055604051908152a2005b60405162461bcd60e51b815260206004820152600860248201526706d61784d756c3d360c41b6044820152606490fd5b346101bd576117c836611e8c565b604051909167ffffffffffffffff9161012080820184811183821017610c40576040523682376001916117ff600284541415611eef565b6002835561180c81612775565b5f194301944386116103b15760405195602096878101917f3b985d08128ef7b25e693a611fb5ae6f2d2b2974adbec7deb83c4f95c2562e6b938484523360601b604084015260548301524060748201524460948201526094815261186f81611f8a565b519020945f5b60098110611ab557506040515f9160a0820190811182821017610c4057806040999699526118a281611f52565b5f81528660c0830152600260e083015281526040516118c081611f52565b6003815260048682015260059060056040820152868301526040516118e481611f52565b6006815260078782015260086040820152604083015260405161190681611f52565b5f815260048782015260086040820152606083015260405161192781611f52565b600281526004878201526006604082015260808301525f915b8183106119b7575050506119548184612ad4565b956040519384528685850152604084015260608301525f60808301525f8051602061317883398151915260a03393a38180556040519283525f93908084015b600986106119a15761014085f35b825160ff16815294830194918101918101611993565b959895919290919087908a60ff806119f981806119e28e826119d98e8d61201c565b51511690611ff7565b5116946119ef8b8a61201c565b510151168c611ff7565b511690611a0c8160406119ef8b8a61201c565b51168282148080611aac575b15611a405750505090611a2d611a3392612e62565b9061202d565b935b019190989598611940565b809894989392938115611aa3575b8015611a9a575b611a63575b50505050611a35565b91611a7d94989391611a2d935f14611a8757509050612e17565b938b808080611a5a565b8203611a935750612e17565b9050612e17565b50818314611a55565b50818414611a4e565b50818314611a18565b600b908181029181830414811517156103b15760ff60068989941c0616611adc8288611ff7565b5201611875565b346101bd57611af136611e8c565b90611b0160026001541415611eef565b6002600155611b0f81612775565b5f194301914383116103b157604092835160208101917fdeaf26d9fc1b1d46e61edad22cef78a6be450224dcf68032c852b8506f9ef13a938484523360601b87840152605483015240607482015244609482015260948152611b7081611f8a565b519020916103e880840661ffff1692906102258411611bd457505f5b611b968184612a87565b9486519384528560208501528684015283606084015260808301525f8051602061317883398151915260a03393a36001805582519182526020820152f35b61031f8411611be5575060c8611b8c565b6103978411611bf757506101f4611b8c565b6103c9841115611b8c57506103dd8311611c13576107d0611b8c565b6103e58311611c2457611388611b8c565b612710611b8c565b346101bd575f3660031901126101bd5760206040517f458fc043506cc6fea16e7daa38390499ef978846d88dd78fe56678ac9de794448152f35b346101bd57611c7436611e68565b9091600190611c87600283541415611eef565b600282555f9360ff8416938385101580611e5d575b15611e2d57611caa83612775565b5f1943014381116103b1576127109060405160208101917f458fc043506cc6fea16e7daa38390499ef978846d88dd78fe56678ac9de79444958684523360601b6040840152605483015240607482015244609482015260948152611d0d81611f8a565b5190200694848103611d975750611b58851015611d59575f8051602061317883398151915290611d3f60965b856128c4565b9587156110a757611091866040519384938a339986611f28565b612328851015611d7c575f8051602061317883398151915290611d3f60c8611d39565b94505f805160206131788339815191528395611d3f5f611d39565b600203611de55761157c851015611dc1575f8051602061317883398151915290611d3f60c8611d39565b611f40851015611d7c575f8051602061317883398151915290611d3f61012c611d39565b610fa0851015611e09575f8051602061317883398151915290611d3f61012c611d39565b611770851015611d7c575f8051602061317883398151915290611d3f6101f4611d39565b60405162461bcd60e51b8152602060048201526008602482015267626164207269736b60c01b6044820152606490fd5b506003851115611c9c565b60609060031901126101bd57600435906024359060443560ff811681036101bd5790565b60409060031901126101bd576004359060243590565b60609060031901126101bd57600435906024359060443580151581036101bd5790565b5f915b60058310611ed557505050565b60019060ff83511681526020809101920192019190611ec8565b15611ef657565b60405162461bcd60e51b815260206004820152600a6024820152697265656e7472616e637960b01b6044820152606490fd5b9081526020810191909152604081019190915260ff91821660608201529116608082015260a00190565b6060810190811067ffffffffffffffff821117610c4057604052565b6080810190811067ffffffffffffffff821117610c4057604052565b60c0810190811067ffffffffffffffff821117610c4057604052565b60a0810190811067ffffffffffffffff821117610c4057604052565b90601f8019910116810190811067ffffffffffffffff821117610c4057604052565b818102929181159184041417156103b157565b9060098110156120085760051b0190565b634e487b7160e01b5f52603260045260245ffd5b9060058110156120085760051b0190565b919082018092116103b157565b1561204157565b60405162461bcd60e51b81526020600482015260096024820152683737ba1037bbb732b960b91b6044820152606490fd5b60ff60019116019060ff82116103b157565b60ff600a9116019060ff82116103b157565b60ff600b9116019060ff82116103b157565b9060ff8091169116019060ff82116103b157565b90600c8110156120085760051b0190565b5f1981146103b15760010190565b91906120e683612775565b5f1943014381116103b1576040519060208201925f8051602061315883398151915284523360601b604084015260548301524060748201524460948201526094815261213181611f8a565b5190209160405161018080820182811067ffffffffffffffff821117610c405760409594939295523685375f5b600c8110612715575060ff8451169260ff6020860151169060ff6040870151169560049260ff606083015116966040519361219885611f6e565b8185528960208601525f60408601525f60608601525f995f995f995f995b8960ff8c16101561228f5760ff6121cf818d168b61307e565b51161561228057600160ff6121f68d9e9f6121ee9d9e9c9d839161308f565b9c168d61307e565b51160361222c5761220d8b9c9d9e9b999a9b61308f565b9d61221790612096565b9b60ff6001819f5b01169b9950999c506121b6565b8a60ff6001819f9c8f9d819f9d9e6122518561224a8184168661307e565b51166130b3565b1561226757506122619150612084565b9e61221f565b61227861226193868093169061307e565b5116906120a8565b8960ff6001819f9c9b9d61221f565b9295989b9c9a91949750929598505b601560ff82161180612709575b156122e2576122b9906130a0565b9860ff8116156122cf5760ff165f19019861229e565b60118b634e487b7160e01b5f525260245ffd5b9850600260ff8b9c9b969798999b161493846126fb575b849b9a999b9896959798938c90604051986123138a611f6e565b895260208901525f60408901525f60608901525f9a5f9a5f9b5f9b5b60ff8d1610156123f6579e8e9f8c9d9e9f9a9b9c6123528e60ff8093169061307e565b5116156123ec579e8d9e9f9c612369819f9e61308f565b9d60ff166123769161307e565b5160ff166001145f146123ac5761238c9061308f565b9e61239690612096565b9d6001905b0160ff169b909f9e9d9c9a9961232f565b9e8d8f91826123c460ff61224a81600197168661307e565b156123da57506123d49150612084565b9e61239b565b6122786123d49360ff8093169061307e565b9b9c60019061239b565b50929598509295985092959b9a99985b601560ff821611806126ef575b1561243757612421906130a0565b9860ff8116156122cf5760ff165f190198612406565b90929598509990929598939699809a601597601560ff84161494856126e4575b50846126d1575b5080806126c9575b6126935750505087908161268b575b5061264257915b601160ff82161080612638575b15612513576124af9060ff6124a76124a0856120cd565b94866120bc565b5116906130ce565b50918260ff81168581116124c55750509161247c565b945098925050506040519283525f60208401526040830152606082015260ff841660808201525f805160206131588339815191525f8051602061317883398151915260a03393a35f93929190565b9396909794919592505b601160ff8216108061262e575b1561254e576125489060ff6124a76125418b6120cd565b9a896120bc565b5061251d565b945091949092955060ff8416601581115f146125a757505f805160206131588339815191525f805160206131788339815191528661258e60c35b85612ddd565b986125a2886040519384938d339986611f28565b0390a3565b60ff8616818111156125dc5750505f805160206131588339815191525f805160206131788339815191528661258e60c3612588565b03612608575f805160206131588339815191525f805160206131788339815191528661258e6064612588565b5f805160206131588339815191525f805160206131788339815191528661258e5f612588565b50600c881061252a565b50600c8210612489565b5050959190505f805160206131588339815191525f805160206131788339815191528761266e84612d83565b946126828960405193849389339986611f28565b0390a393929190565b90505f612475565b9950995099958095505f8051602061315883398151915294505f8051602061317883398151915293508a925061266e9150612d29565b508315612466565b6126dc9194506130b3565b15925f61245e565b60011494505f612457565b5060ff8a161515612413565b60ff8a1660151494506122f9565b5060ff8a1615156122ab565b80600395929394951b90808204600814811517156103b15785612743600193600d60ff9384921c0616612072565b9061274e83866120bc565b9116905201939291909361215e565b908160209103126101bd575180151581036101bd5790565b6003548110612895576004548111612866576040516323b872dd60e01b815233600482015230602482015260448101919091526020816064815f7f00000000000000000000000000000000000000000000000000000000000000006001600160a01b03165af190811561285b575f9161282c575b50156127f157565b60405162461bcd60e51b81526020600482015260136024820152721d1c985b9cd9995c919c9bdb4819985a5b1959606a1b6044820152606490fd5b61284e915060203d602011612854575b6128468183611fc2565b81019061275d565b5f6127e9565b503d61283c565b6040513d5f823e3d90fd5b60405162461bcd60e51b81526020600482015260076024820152660c4cae87cdac2f60cb1b6044820152606490fd5b60405162461bcd60e51b81526020600482015260076024820152663132ba1e36b4b760c91b6044820152606490fd5b91907f458fc043506cc6fea16e7daa38390499ef978846d88dd78fe56678ac9de794445f5260209060058252604093845f2054808311612a7f575b508115612a775760649161291291611fe4565b84516370a0823160e01b815230600482015291900493907f00000000000000000000000000000000000000000000000000000000000000006001600160a01b0316908381602481855afa908115612a6d579086915f91612a3c575b5010612a0a57825f91604484518094819363a9059cbb60e01b83523360048401528a60248401525af1908115612a00575f916129e3575b50156129ae575050565b60649250519062461bcd60e51b82526004820152600f60248201526e1d1c985b9cd9995c8819985a5b1959608a1b6044820152fd5b6129fa9150833d8511612854576128468183611fc2565b5f6129a4565b82513d5f823e3d90fd5b815162461bcd60e51b815260048101849052600b60248201526a18985b9acf1b995959195960aa1b6044820152606490fd5b809250858092503d8311612a66575b612a558183611fc2565b810103126101bd578590515f61296d565b503d612a4b565b83513d5f823e3d90fd5b505f93505050565b91505f6128ff565b91907fdeaf26d9fc1b1d46e61edad22cef78a6be450224dcf68032c852b8506f9ef13a5f5260209060058252604093845f2054808311612a7f57508115612a775760649161291291611fe4565b91907f3b985d08128ef7b25e693a611fb5ae6f2d2b2974adbec7deb83c4f95c2562e6b5f5260209060058252604093845f2054808311612a7f57508115612a775760649161291291611fe4565b91907f41541f350c1da9780d719f9ebc2dd9d5883bf8c8df895243a1696bede4a708c05f5260209060058252604093845f2054808311612a7f57508115612a775760649161291291611fe4565b91907fe2412dc479e6064d21b6e3d02d1bbfa8739e73e4fcafe6f5c217042f886578fe5f5260209060058252604093845f2054808311612a7f57508115612a775760649161291291611fe4565b91907fdaddb616f5c7de77d0634f27951728c5f98524b1773569c8f3a384fa1dc584455f5260209060058252604093845f2054808311612a7f57508115612a775760649161291291611fe4565b91907fd879501ed9641c68023ff6b947b22aa19c58e11861da57545295844196dba47a5f5260209060058252604093845f2054808311612a7f57508115612a775760649161291291611fe4565b91907ff5beda5446b36b03f1b8a0e4496f3673d5f19abe058bce9589f7a81a88b517785f5260209060058252604093845f2054808311612a7f57508115612a775760649161291291611fe4565b91905f805160206131988339815191525f5260209060058252604093845f2054808311612a7f57508115612a775760649161291291611fe4565b91907f8d8e6987fb3617c00abdd68d6c1f7eac28b7f9f96b25367e9b65dacaa0914a8b5f5260209060058252604093845f2054808311612a7f57508115612a775760649161291291611fe4565b5f805160206131588339815191525f52600560209081527fa2bdcad779d6f16ec63a3ed32d5b29f38ef42983aaf1bb948bd21e619022003f546040939260fa91808311612a7f57508115612a775760649161291291611fe4565b5f805160206131588339815191525f52600560209081527fa2bdcad779d6f16ec63a3ed32d5b29f38ef42983aaf1bb948bd21e619022003f5460409392606491808311612a7f57508115612a775760649161291291611fe4565b91905f805160206131588339815191525f5260209060058252604093845f2054808311612a7f57508115612a775760649161291291611fe4565b60ff168015612e5b5760018114612e555760028114612e4f5760038114612e4957600414612e4457608290565b609690565b5060b490565b5060c890565b5060dc90565b5061012c90565b60ff168015612eab5760018114612ea45760028114612e9d5760038114612e9657600414612e905761012c90565b61025890565b506103e890565b506105dc90565b506109c490565b50610fa090565b60ff1660018114908115612fef575b8115612fe4575b8115612fd9575b8115612fce575b8115612fc3575b8115612fb8575b8115612fad575b8115612fa2575b8115612f97575b8115612f8c575b8115612f81575b8115612f76575b8115612f6b575b8115612f60575b8115612f55575b8115612f4a575b8115612f3f575b50612f3a575f90565b600190565b60249150145f612f31565b602281149150612f2a565b602081149150612f23565b601e81149150612f1c565b601b81149150612f15565b601981149150612f0e565b601781149150612f07565b601581149150612f00565b601381149150612ef9565b601281149150612ef2565b601081149150612eeb565b600e81149150612ee4565b600c81149150612edd565b600981149150612ed6565b600781149150612ecf565b600581149150612ec8565b600381149150612ec1565b60ff16801561307957600181146130735760028114612e4f5760038114612e5b576004811461306c5760058114612e965760068114612e9d57600781146130655760088114612ea4576009811461305e57600a146130585761271090565b611d4c90565b5061138890565b506107d090565b506101f490565b50606490565b505f90565b9060048110156120085760051b0190565b60ff1660ff81146103b15760010190565b60ff6009199116019060ff82116103b157565b60ff16600a81101590816130c5575090565b600d9150111590565b60ff82166001149291831561312457506130ea600b5b826120a8565b92601560ff851611908161311c575b5061310a575b50601560ff83161190565b613115919250612072565b905f6130ff565b90505f6130f9565b61312d816130b3565b1561313d57506130ea600a6130e4565b6130ea906130e4565b90600f8110156120085760051b019056fec0f623b41da047e1e0c8f5bc36e299fb81a4f7db52bf26a86dc600e9d249c094c0c87aad7019a41a522a6e48778ee6df9fcdde6b449ea2937846bbe9ae5645870fdaa1ecfa8570d316df2289076ceb445ffc8958d809bb5f680d13e30b647cbfa2646970667358221220bff0221c7b919a9be51c95dd518abc7631c3d1a7a0ba78186a15c8ea3f567a3064736f6c63430008180033","linkReferences":{}},"methodIdentifiers":{"GAME_BLACKJACK()":"94dfe4c6","GAME_COINFLIP()":"f0851144","GAME_DICE()":"f027af76","GAME_HILO()":"aa4b76da","GAME_JACKPOT()":"db45738d","GAME_MINE()":"10d05f19","GAME_PAN()":"30d09853","GAME_ROULETTE()":"bac3f6b1","GAME_SLOTS()":"f1e6fa29","GAME_VIDEOPKER()":"2f6fc8c4","GAME_WAR()":"f5a5ef5b","gameMaxMultiplier(bytes32)":"a0a64405","houseWallet()":"77818f02","maxBet()":"2e5b2168","minBet()":"9619367d","owner()":"8da5cb5b","playBlackjack(uint256,uint256)":"83d01b00","playCoinFlip(uint256,uint256,bool)":"a307f01f","playDice(uint256,uint256,uint8)":"f780aed7","playHiLo(uint256,uint256,bool)":"ca30f194","playJackpotSpin(uint256,uint256)":"481e1102","playMine(uint256,uint256,uint8)":"0b3aace9","playPan(uint256,uint256)":"1bb19ac1","playRoulette(uint256,uint256,uint8,uint8)":"3a97818f","playSlots(uint256,uint256)":"21ad0eb5","playVideoPoker(uint256,uint256)":"e99258ed","playWar(uint256,uint256)":"3ad61488","setGameMaxMultiplier(bytes32,uint256)":"2e54716c","setHouseWallet(address)":"35d4de51","setLimits(uint256,uint256)":"c4590d3f","token()":"fc0c546a","transferOwnership(address)":"f2fde38b"},"id":3}