{"abi":[{"type":"constructor","inputs":[{"name":"chipToken","type":"address","internalType":"address"},{"name":"_minBet","type":"uint256","internalType":"uint256"},{"name":"_maxBet","type":"uint256","internalType":"uint256"},{"name":"owner_","type":"address","internalType":"address"}],"stateMutability":"nonpayable"},{"type":"function","name":"chip","inputs":[],"outputs":[{"name":"","type":"address","internalType":"contract IERC20"}],"stateMutability":"view"},{"type":"function","name":"distinctPlayers","inputs":[],"outputs":[{"name":"","type":"uint256","internalType":"uint256"}],"stateMutability":"view"},{"type":"function","name":"hasPlayed","inputs":[{"name":"","type":"address","internalType":"address"}],"outputs":[{"name":"","type":"bool","internalType":"bool"}],"stateMutability":"view"},{"type":"function","name":"maxBet","inputs":[],"outputs":[{"name":"","type":"uint256","internalType":"uint256"}],"stateMutability":"view"},{"type":"function","name":"minBet","inputs":[],"outputs":[{"name":"","type":"uint256","internalType":"uint256"}],"stateMutability":"view"},{"type":"function","name":"owner","inputs":[],"outputs":[{"name":"","type":"address","internalType":"address"}],"stateMutability":"view"},{"type":"function","name":"ownerDeposit","inputs":[{"name":"amount","type":"uint256","internalType":"uint256"}],"outputs":[],"stateMutability":"nonpayable"},{"type":"function","name":"ownerWithdraw","inputs":[{"name":"amount","type":"uint256","internalType":"uint256"}],"outputs":[],"stateMutability":"nonpayable"},{"type":"function","name":"paidOutByGame","inputs":[{"name":"","type":"uint8","internalType":"enum BaseGoldCasinoV2Testnet.Game"}],"outputs":[{"name":"","type":"uint256","internalType":"uint256"}],"stateMutability":"view"},{"type":"function","name":"pause","inputs":[],"outputs":[],"stateMutability":"nonpayable"},{"type":"function","name":"paused","inputs":[],"outputs":[{"name":"","type":"bool","internalType":"bool"}],"stateMutability":"view"},{"type":"function","name":"playBlackjack","inputs":[{"name":"stake","type":"uint256","internalType":"uint256"},{"name":"seed","type":"uint256","internalType":"uint256"}],"outputs":[],"stateMutability":"nonpayable"},{"type":"function","name":"playCoinFlip","inputs":[{"name":"stake","type":"uint256","internalType":"uint256"},{"name":"seed","type":"uint256","internalType":"uint256"}],"outputs":[],"stateMutability":"nonpayable"},{"type":"function","name":"playHiLo","inputs":[{"name":"stake","type":"uint256","internalType":"uint256"},{"name":"seed","type":"uint256","internalType":"uint256"}],"outputs":[],"stateMutability":"nonpayable"},{"type":"function","name":"playMine","inputs":[{"name":"stake","type":"uint256","internalType":"uint256"},{"name":"seed","type":"uint256","internalType":"uint256"}],"outputs":[],"stateMutability":"nonpayable"},{"type":"function","name":"playPan","inputs":[{"name":"stake","type":"uint256","internalType":"uint256"},{"name":"seed","type":"uint256","internalType":"uint256"}],"outputs":[],"stateMutability":"nonpayable"},{"type":"function","name":"playRoulette","inputs":[{"name":"stake","type":"uint256","internalType":"uint256"},{"name":"seed","type":"uint256","internalType":"uint256"}],"outputs":[],"stateMutability":"nonpayable"},{"type":"function","name":"playSlots","inputs":[{"name":"stake","type":"uint256","internalType":"uint256"},{"name":"seed","type":"uint256","internalType":"uint256"}],"outputs":[],"stateMutability":"nonpayable"},{"type":"function","name":"playVideoPoker","inputs":[{"name":"stake","type":"uint256","internalType":"uint256"},{"name":"seed","type":"uint256","internalType":"uint256"}],"outputs":[],"stateMutability":"nonpayable"},{"type":"function","name":"playWar","inputs":[{"name":"stake","type":"uint256","internalType":"uint256"},{"name":"seed","type":"uint256","internalType":"uint256"}],"outputs":[],"stateMutability":"nonpayable"},{"type":"function","name":"renounceOwnership","inputs":[],"outputs":[],"stateMutability":"nonpayable"},{"type":"function","name":"setBetBounds","inputs":[{"name":"_minBet","type":"uint256","internalType":"uint256"},{"name":"_maxBet","type":"uint256","internalType":"uint256"}],"outputs":[],"stateMutability":"nonpayable"},{"type":"function","name":"totalPaidOut","inputs":[],"outputs":[{"name":"","type":"uint256","internalType":"uint256"}],"stateMutability":"view"},{"type":"function","name":"totalWagered","inputs":[],"outputs":[{"name":"","type":"uint256","internalType":"uint256"}],"stateMutability":"view"},{"type":"function","name":"transferOwnership","inputs":[{"name":"newOwner","type":"address","internalType":"address"}],"outputs":[],"stateMutability":"nonpayable"},{"type":"function","name":"unpause","inputs":[],"outputs":[],"stateMutability":"nonpayable"},{"type":"function","name":"wageredByGame","inputs":[{"name":"","type":"uint8","internalType":"enum BaseGoldCasinoV2Testnet.Game"}],"outputs":[{"name":"","type":"uint256","internalType":"uint256"}],"stateMutability":"view"},{"type":"event","name":"GamePlayed","inputs":[{"name":"player","type":"address","indexed":true,"internalType":"address"},{"name":"game","type":"uint8","indexed":true,"internalType":"enum BaseGoldCasinoV2Testnet.Game"},{"name":"stake","type":"uint256","indexed":false,"internalType":"uint256"},{"name":"randomWord","type":"uint256","indexed":false,"internalType":"uint256"},{"name":"payout","type":"uint256","indexed":false,"internalType":"uint256"}],"anonymous":false},{"type":"event","name":"OwnershipTransferred","inputs":[{"name":"previousOwner","type":"address","indexed":true,"internalType":"address"},{"name":"newOwner","type":"address","indexed":true,"internalType":"address"}],"anonymous":false},{"type":"event","name":"Paused","inputs":[{"name":"account","type":"address","indexed":false,"internalType":"address"}],"anonymous":false},{"type":"event","name":"Unpaused","inputs":[{"name":"account","type":"address","indexed":false,"internalType":"address"}],"anonymous":false},{"type":"error","name":"EnforcedPause","inputs":[]},{"type":"error","name":"ExpectedPause","inputs":[]},{"type":"error","name":"OwnableInvalidOwner","inputs":[{"name":"owner","type":"address","internalType":"address"}]},{"type":"error","name":"OwnableUnauthorizedAccount","inputs":[{"name":"account","type":"address","internalType":"address"}]},{"type":"error","name":"ReentrancyGuardReentrantCall","inputs":[]},{"type":"error","name":"SafeERC20FailedOperation","inputs":[{"name":"token","type":"address","internalType":"address"}]}],"bytecode":{"object":"0x60a060405234801562000010575f80fd5b5060405162001571380380620015718339810160408190526200003391620001f4565b806001600160a01b0381166200006357604051631e4fbdf760e01b81525f60048201526024015b60405180910390fd5b6200006e8162000189565b5060017f9b779b17422d0df92223018b32b4d1fa46e071723d6817e2486d003becc55f00556001600160a01b038416620000eb5760405162461bcd60e51b815260206004820152601360248201527f6368697020746f6b656e2072657175697265640000000000000000000000000060448201526064016200005a565b5f8311620001295760405162461bcd60e51b815260206004820152600a60248201526906d696e426574203e20360b41b60448201526064016200005a565b828210156200016e5760405162461bcd60e51b815260206004820152601060248201526f1b585e10995d080f8f481b5a5b90995d60821b60448201526064016200005a565b506001600160a01b039092166080526001556002556200023c565b5f80546001600160a01b038381166001600160a01b0319831681178455604051919092169283917f8be0079c531659141344cd1fd0a4f28419497f9722a3daafe3b4186f6b6457e09190a35050565b80516001600160a01b0381168114620001ef575f80fd5b919050565b5f805f806080858703121562000208575f80fd5b6200021385620001d8565b935060208501519250604085015191506200023160608601620001d8565b905092959194509250565b6080516112f9620002785f395f8181610335015281816103d70152818161055d01528181610b9901528181610d760152610e3b01526112f95ff3fe608060405234801561000f575f80fd5b50600436106101a1575f3560e01c8063715018a6116100f35780639619367d11610093578063d54765901161006e578063d547659014610376578063db246c0214610389578063e99258ed1461039c578063f2fde38b146103af575f80fd5b80639619367d14610327578063b61500e414610330578063c11c4fec14610357575f80fd5b80638a14f12c116100ce5780638a14f12c146102d45780638c0929e5146102dd5780638d69c8d8146102f05780638da5cb5b14610303575f80fd5b8063715018a6146102b157806383d01b00146102b95780638456cb59146102cc575f80fd5b80632e5b21681161015e5780633ad61488116101395780633ad61488146102725780633f4ba83a1461028557806348c793421461028d5780635c975abb146102a0575f80fd5b80632e5b21681461022457806332d0bbe31461022d57806333f707d11461025f575f80fd5b8063051e0c5b146101a55780631323a4b6146101d75780631357e1dc146101e0578063141833dc146101e95780631bb19ac1146101fe57806321ad0eb514610211575b5f80fd5b6101c46101b3366004611166565b60076020525f908152604090205481565b6040519081526020015b60405180910390f35b6101c460065481565b6101c460055481565b6101fc6101f736600461118b565b6103c2565b005b6101fc61020c3660046111a2565b610402565b6101fc61021f3660046111a2565b6104a8565b6101c460025481565b61024f61023b3660046111c2565b60096020525f908152604090205460ff1681565b60405190151581526020016101ce565b6101fc61026d36600461118b565b610548565b6101fc6102803660046111a2565b610584565b6101fc610635565b6101fc61029b3660046111a2565b610647565b5f54600160a01b900460ff1661024f565b6101fc6106de565b6101fc6102c73660046111a2565b6106ef565b6101fc610773565b6101c460045481565b6101fc6102eb3660046111a2565b610783565b6101fc6102fe3660046111a2565b6107df565b5f546001600160a01b03165b6040516001600160a01b0390911681526020016101ce565b6101c460015481565b61030f7f000000000000000000000000000000000000000000000000000000000000000081565b6101c4610365366004611166565b60086020525f908152604090205481565b6101fc6103843660046111a2565b61088b565b6101fc6103973660046111a2565b610903565b6101fc6103aa3660046111a2565b61097c565b6101fc6103bd3660046111c2565b610a51565b6103ca610a8b565b6103ff6001600160a01b037f000000000000000000000000000000000000000000000000000000000000000016333084610ab7565b50565b61040a610af3565b610412610b0e565b61041d335f84610b38565b5f61271061042b3384610c81565b61043591906111fc565b90505f60328210156104535761044c84600a611223565b9050610480565b6101f48210156104685761044c846004611223565b610bb882101561047d5761044c846002611223565b505f5b61048c335f8385610cf6565b50506104a460015f805160206112a483398151915255565b5050565b6104b0610af3565b6104b8610b0e565b6104c433600284610b38565b5f6127106104d23384610c81565b6104dc91906111fc565b90505f60148210156104fa576104f3846032611223565b905061053b565b60c882101561050e576104f384600f611223565b6103e8821015610523576104f3846005611223565b610bb8821015610538576104f3846002611223565b505f5b61048c3360028385610cf6565b610550610a8b565b6103ff6001600160a01b037f0000000000000000000000000000000000000000000000000000000000000000163383610f25565b61058c610af3565b610594610b0e565b6105a033600684610b38565b5f60346105ad3384610c81565b6105b791906111fc565b90505f60346105d1336105cc8661303961123a565b610c81565b6105db91906111fc565b90505f8183111561060457600a6105f3866013611223565b6105fd919061124d565b9050610607565b505f5b600883901b821761061b3360068484610cf6565b505050506104a460015f805160206112a483398151915255565b61063d610a8b565b610645610f5a565b565b61064f610a8b565b5f82116106905760405162461bcd60e51b815260206004820152600a60248201526906d696e426574203e20360b41b60448201526064015b60405180910390fd5b818110156106d35760405162461bcd60e51b815260206004820152601060248201526f1b585e10995d080f8f481b5a5b90995d60821b6044820152606401610687565b600191909155600255565b6106e6610a8b565b6106455f610fae565b6106f7610af3565b6106ff610b0e565b61070b33600884610b38565b5f6127106107193384610c81565b61072391906111fc565b90505f61019082101561074e57600a61073d856019611223565b610747919061124d565b9050610766565b6111f882101561076657610763846002611223565b90505b61048c3360088385610cf6565b61077b610a8b565b610645610ffd565b61078b610af3565b610793610b0e565b61079f33600484610b38565b5f6127106107ad3384610c81565b6107b791906111fc565b90505f6113568210156107d2576107cf846002611223565b90505b61048c3360048385610cf6565b6107e7610af3565b6107ef610b0e565b6107fb33600184610b38565b5f6127106108093384610c81565b61081391906111fc565b90505f601e8210156108315761082a84601e611223565b905061087e565b60e68210156108455761082a84600a611223565b6104ce82101561085a5761082a846003611223565b610e9282101561087b576002610871856003611223565b61082a919061124d565b505f5b61048c3360018385610cf6565b610893610af3565b61089b610b0e565b6108a733600584610b38565b5f6127106108b53384610c81565b6108bf91906111fc565b90505f610fa08210156108de576108d7846002611223565b90506108f6565b6113888210156108f6576108f3846003611223565b90505b61048c3360058385610cf6565b61090b610af3565b610913610b0e565b61091f33600784610b38565b5f602561092c3384610c81565b61093691906111fc565b90505f8115801590610950575061094e6002836111fc565b155b1561096f57600a610962856013611223565b61096c919061124d565b90505b61048c3360078385610cf6565b610984610af3565b61098c610b0e565b61099833600384610b38565b5f6127106109a63384610c81565b6109b091906111fc565b90505f600a8210156109ce576109c7846032611223565b9050610a44565b60328210156109e2576109c7846019611223565b60c88210156109f6576109c784600a611223565b610258821015610a0b576109c7846005611223565b610640821015610a20576109c7846002611223565b610e10821015610a4157600a610a3785600c611223565b6109c7919061124d565b505f5b61048c3360038385610cf6565b610a59610a8b565b6001600160a01b038116610a8257604051631e4fbdf760e01b81525f6004820152602401610687565b6103ff81610fae565b5f546001600160a01b031633146106455760405163118cdaa760e01b8152336004820152602401610687565b610ac584848484600161103f565b610aed57604051635274afe760e01b81526001600160a01b0385166004820152602401610687565b50505050565b610afb6110ac565b60025f805160206112a483398151915255565b5f54600160a01b900460ff16156106455760405163d93c066560e01b815260040160405180910390fd5b6001548110158015610b4c57506002548111155b610b8c5760405162461bcd60e51b8152602060048201526011602482015270626574206f7574206f6620626f756e647360781b6044820152606401610687565b610bc16001600160a01b037f000000000000000000000000000000000000000000000000000000000000000016843084610ab7565b8060045f828254610bd2919061123a565b9091555081905060075f846008811115610bee57610bee611260565b6008811115610bff57610bff611260565b81526020019081526020015f205f828254610c1a919061123a565b90915550506001600160a01b0383165f9081526009602052604090205460ff16610c7c576001600160a01b0383165f908152600960205260408120805460ff191660019081179091556006805491929091610c7690849061123a565b90915550505b505050565b600380545f9182610c9183611274565b9091555050600354604080514460208201524291810191909152606085811b6bffffffffffffffffffffffff19169082015260748101849052609481019190915260b401604051602081830303815290604052805190602001205f1c90505b92915050565b815f03610d5f57826008811115610d0f57610d0f611260565b604080515f808252602082018590528183015290516001600160a01b038716917fb0b0cf08ece097504d299dcaf04c81e39029159d4b8c689bfbe09378ca87c566919081900360600190a3610aed565b6040516370a0823160e01b81523060048201525f907f00000000000000000000000000000000000000000000000000000000000000006001600160a01b0316906370a0823190602401602060405180830381865afa158015610dc3573d5f803e3d5ffd5b505050506040513d601f19601f82011682018060405250810190610de7919061128c565b905082811015610e2e5760405162461bcd60e51b815260206004820152601260248201527118d85cda5b9bc81d5b99195c999d5b99195960721b6044820152606401610687565b610e626001600160a01b037f0000000000000000000000000000000000000000000000000000000000000000168685610f25565b8260055f828254610e73919061123a565b9091555083905060085f8682811115610e8e57610e8e611260565b6008811115610e9f57610e9f611260565b81526020019081526020015f205f828254610eba919061123a565b909155508490506008811115610ed257610ed2611260565b604080515f8152602081018590529081018590526001600160a01b038716907fb0b0cf08ece097504d299dcaf04c81e39029159d4b8c689bfbe09378ca87c5669060600160405180910390a35050505050565b610f3283838360016110db565b610c7c57604051635274afe760e01b81526001600160a01b0384166004820152602401610687565b610f6261113d565b5f805460ff60a01b191690557f5db9ee0a495bf2e6ff9c91a7834c1ba4fdd244a5e8aa4e537bd38aeae4b073aa335b6040516001600160a01b03909116815260200160405180910390a1565b5f80546001600160a01b038381166001600160a01b0319831681178455604051919092169283917f8be0079c531659141344cd1fd0a4f28419497f9722a3daafe3b4186f6b6457e09190a35050565b611005610b0e565b5f805460ff60a01b1916600160a01b1790557f62e78cea01bee320cd4e420270b5ea74000d11b0c9f74754ebdbfc544b05a258610f913390565b6040516323b872dd60e01b5f8181526001600160a01b038781166004528616602452604485905291602083606481808c5af1925060015f5114831661109b57838315161561108f573d5f823e3d81fd5b5f883b113d1516831692505b604052505f60605295945050505050565b5f805160206112a48339815191525460020361064557604051633ee5aeb560e01b815260040160405180910390fd5b60405163a9059cbb60e01b5f8181526001600160a01b038616600452602485905291602083604481808b5af1925060015f51148316611131578383151615611125573d5f823e3d81fd5b5f873b113d1516831692505b60405250949350505050565b5f54600160a01b900460ff1661064557604051638dfc202b60e01b815260040160405180910390fd5b5f60208284031215611176575f80fd5b813560098110611184575f80fd5b9392505050565b5f6020828403121561119b575f80fd5b5035919050565b5f80604083850312156111b3575f80fd5b50508035926020909101359150565b5f602082840312156111d2575f80fd5b81356001600160a01b0381168114611184575f80fd5b634e487b7160e01b5f52601260045260245ffd5b5f8261120a5761120a6111e8565b500690565b634e487b7160e01b5f52601160045260245ffd5b8082028115828204841417610cf057610cf061120f565b80820180821115610cf057610cf061120f565b5f8261125b5761125b6111e8565b500490565b634e487b7160e01b5f52602160045260245ffd5b5f600182016112855761128561120f565b5060010190565b5f6020828403121561129c575f80fd5b505191905056fe9b779b17422d0df92223018b32b4d1fa46e071723d6817e2486d003becc55f00a2646970667358221220aa41895ff3962002bfbd8f8aa379781449c525f8063c6a0a96068a229ce78cd064736f6c63430008180033","linkReferences":{}},"methodIdentifiers":{"chip()":"b61500e4","distinctPlayers()":"1323a4b6","hasPlayed(address)":"32d0bbe3","maxBet()":"2e5b2168","minBet()":"9619367d","owner()":"8da5cb5b","ownerDeposit(uint256)":"141833dc","ownerWithdraw(uint256)":"33f707d1","paidOutByGame(uint8)":"c11c4fec","pause()":"8456cb59","paused()":"5c975abb","playBlackjack(uint256,uint256)":"83d01b00","playCoinFlip(uint256,uint256)":"8c0929e5","playHiLo(uint256,uint256)":"d5476590","playMine(uint256,uint256)":"8d69c8d8","playPan(uint256,uint256)":"1bb19ac1","playRoulette(uint256,uint256)":"db246c02","playSlots(uint256,uint256)":"21ad0eb5","playVideoPoker(uint256,uint256)":"e99258ed","playWar(uint256,uint256)":"3ad61488","renounceOwnership()":"715018a6","setBetBounds(uint256,uint256)":"48c79342","totalPaidOut()":"1357e1dc","totalWagered()":"8a14f12c","transferOwnership(address)":"f2fde38b","unpause()":"3f4ba83a","wageredByGame(uint8)":"051e0c5b"},"id":2}