{"abi":[{"type":"constructor","inputs":[{"name":"_bgld","type":"address","internalType":"address"},{"name":"_vault","type":"address","internalType":"address"},{"name":"_treasury","type":"address","internalType":"address"}],"stateMutability":"nonpayable"},{"type":"function","name":"bgld","inputs":[],"outputs":[{"name":"","type":"address","internalType":"contract IERC20"}],"stateMutability":"view"},{"type":"function","name":"jackpotLucky","inputs":[],"outputs":[{"name":"","type":"uint256","internalType":"uint256"}],"stateMutability":"view"},{"type":"function","name":"jackpotMotherlode","inputs":[],"outputs":[{"name":"","type":"uint256","internalType":"uint256"}],"stateMutability":"view"},{"type":"function","name":"jackpotQuick","inputs":[],"outputs":[{"name":"","type":"uint256","internalType":"uint256"}],"stateMutability":"view"},{"type":"function","name":"maxBet","inputs":[],"outputs":[{"name":"","type":"uint256","internalType":"uint256"}],"stateMutability":"view"},{"type":"function","name":"minBet","inputs":[],"outputs":[{"name":"","type":"uint256","internalType":"uint256"}],"stateMutability":"view"},{"type":"function","name":"owner","inputs":[],"outputs":[{"name":"","type":"address","internalType":"address"}],"stateMutability":"view"},{"type":"function","name":"pause","inputs":[],"outputs":[],"stateMutability":"nonpayable"},{"type":"function","name":"paused","inputs":[],"outputs":[{"name":"","type":"bool","internalType":"bool"}],"stateMutability":"view"},{"type":"function","name":"playMine","inputs":[{"name":"stake","type":"uint256","internalType":"uint256"},{"name":"seed","type":"uint256","internalType":"uint256"}],"outputs":[],"stateMutability":"nonpayable"},{"type":"function","name":"playPan","inputs":[{"name":"stake","type":"uint256","internalType":"uint256"},{"name":"seed","type":"uint256","internalType":"uint256"}],"outputs":[],"stateMutability":"nonpayable"},{"type":"function","name":"playSlots","inputs":[{"name":"stake","type":"uint256","internalType":"uint256"},{"name":"seed","type":"uint256","internalType":"uint256"}],"outputs":[],"stateMutability":"nonpayable"},{"type":"function","name":"renounceOwnership","inputs":[],"outputs":[],"stateMutability":"nonpayable"},{"type":"function","name":"seedJackpots","inputs":[{"name":"motherlode","type":"uint256","internalType":"uint256"},{"name":"lucky","type":"uint256","internalType":"uint256"},{"name":"quick","type":"uint256","internalType":"uint256"}],"outputs":[],"stateMutability":"nonpayable"},{"type":"function","name":"setMinMax","inputs":[{"name":"_min","type":"uint256","internalType":"uint256"},{"name":"_max","type":"uint256","internalType":"uint256"}],"outputs":[],"stateMutability":"nonpayable"},{"type":"function","name":"setSplit","inputs":[{"name":"prize","type":"uint16","internalType":"uint16"},{"name":"vault_","type":"uint16","internalType":"uint16"},{"name":"treasury_","type":"uint16","internalType":"uint16"}],"outputs":[],"stateMutability":"nonpayable"},{"type":"function","name":"setTreasury","inputs":[{"name":"a","type":"address","internalType":"address"}],"outputs":[],"stateMutability":"nonpayable"},{"type":"function","name":"setVault","inputs":[{"name":"a","type":"address","internalType":"address"}],"outputs":[],"stateMutability":"nonpayable"},{"type":"function","name":"split","inputs":[],"outputs":[{"name":"prize","type":"uint16","internalType":"uint16"},{"name":"vault","type":"uint16","internalType":"uint16"},{"name":"treasury","type":"uint16","internalType":"uint16"}],"stateMutability":"view"},{"type":"function","name":"transferOwnership","inputs":[{"name":"newOwner","type":"address","internalType":"address"}],"outputs":[],"stateMutability":"nonpayable"},{"type":"function","name":"treasury","inputs":[],"outputs":[{"name":"","type":"address","internalType":"address"}],"stateMutability":"view"},{"type":"function","name":"unpause","inputs":[],"outputs":[],"stateMutability":"nonpayable"},{"type":"function","name":"vault","inputs":[],"outputs":[{"name":"","type":"address","internalType":"address"}],"stateMutability":"view"},{"type":"event","name":"JackpotFeed","inputs":[{"name":"motherlode","type":"uint256","indexed":false,"internalType":"uint256"},{"name":"lucky","type":"uint256","indexed":false,"internalType":"uint256"},{"name":"quick","type":"uint256","indexed":false,"internalType":"uint256"}],"anonymous":false},{"type":"event","name":"JackpotHit","inputs":[{"name":"player","type":"address","indexed":true,"internalType":"address"},{"name":"game","type":"bytes32","indexed":false,"internalType":"bytes32"},{"name":"which","type":"string","indexed":false,"internalType":"string"},{"name":"amount","type":"uint256","indexed":false,"internalType":"uint256"}],"anonymous":false},{"type":"event","name":"OwnershipTransferred","inputs":[{"name":"previousOwner","type":"address","indexed":true,"internalType":"address"},{"name":"newOwner","type":"address","indexed":true,"internalType":"address"}],"anonymous":false},{"type":"event","name":"Paused","inputs":[{"name":"account","type":"address","indexed":false,"internalType":"address"}],"anonymous":false},{"type":"event","name":"Played","inputs":[{"name":"player","type":"address","indexed":true,"internalType":"address"},{"name":"game","type":"bytes32","indexed":false,"internalType":"bytes32"},{"name":"stake","type":"uint256","indexed":false,"internalType":"uint256"},{"name":"rnd","type":"uint256","indexed":false,"internalType":"uint256"}],"anonymous":false},{"type":"event","name":"TreasuryFeed","inputs":[{"name":"amount","type":"uint256","indexed":false,"internalType":"uint256"}],"anonymous":false},{"type":"event","name":"Unpaused","inputs":[{"name":"account","type":"address","indexed":false,"internalType":"address"}],"anonymous":false},{"type":"event","name":"VaultFeed","inputs":[{"name":"amount","type":"uint256","indexed":false,"internalType":"uint256"}],"anonymous":false},{"type":"event","name":"Win","inputs":[{"name":"player","type":"address","indexed":true,"internalType":"address"},{"name":"game","type":"bytes32","indexed":false,"internalType":"bytes32"},{"name":"payout","type":"uint256","indexed":false,"internalType":"uint256"}],"anonymous":false},{"type":"error","name":"AddressEmptyCode","inputs":[{"name":"target","type":"address","internalType":"address"}]},{"type":"error","name":"AddressInsufficientBalance","inputs":[{"name":"account","type":"address","internalType":"address"}]},{"type":"error","name":"EnforcedPause","inputs":[]},{"type":"error","name":"ExpectedPause","inputs":[]},{"type":"error","name":"FailedInnerCall","inputs":[]},{"type":"error","name":"OwnableInvalidOwner","inputs":[{"name":"owner","type":"address","internalType":"address"}]},{"type":"error","name":"OwnableUnauthorizedAccount","inputs":[{"name":"account","type":"address","internalType":"address"}]},{"type":"error","name":"ReentrancyGuardReentrantCall","inputs":[]},{"type":"error","name":"SafeERC20FailedOperation","inputs":[{"name":"token","type":"address","internalType":"address"}]}],"bytecode":{"object":"0x61010060405261196460a0526107d060c0526105dc60e0526004805465ffffffffffff19166505dc07d01964179055662386f26fc1000060095569d3c21bcecceda1000000600a5534801562000053575f80fd5b50604051620015d7380380620015d78339810160408190526200007691620001d8565b33806200009d57604051631e4fbdf760e01b81525f60048201526024015b60405180910390fd5b620000a8816200016d565b50600180556002805460ff191690556001600160a01b03831615801590620000d857506001600160a01b03821615155b8015620000ed57506001600160a01b03811615155b620001245760405162461bcd60e51b815260040162000094906020808252600490820152637a65726f60e01b604082015260600190565b6001600160a01b0392831660805260028054610100600160a81b0319166101009385169390930292909217909155600380546001600160a01b031916919092161790556200021f565b5f80546001600160a01b038381166001600160a01b0319831681178455604051919092169283917f8be0079c531659141344cd1fd0a4f28419497f9722a3daafe3b4186f6b6457e09190a35050565b80516001600160a01b0381168114620001d3575f80fd5b919050565b5f805f60608486031215620001eb575f80fd5b620001f684620001bc565b92506200020660208501620001bc565b91506200021660408501620001bc565b90509250925092565b60805161137c6200025b5f395f81816102650152818161035701528181610bbd01528181610c6a01528181610ce30152610e98015261137c5ff3fe608060405234801561000f575f80fd5b5060043610610148575f3560e01c8063715018a6116100bf578063a681f95011610079578063a681f95014610287578063f0f442601461029a578063f2fde38b146102ad578063f56ae799146102c0578063f7654176146102c9578063fbfa77cf14610312575f80fd5b8063715018a6146102245780638456cb591461022c5780638d69c8d8146102345780638da5cb5b146102475780639619367d1461025757806396f8c5c114610260575f80fd5b80634b1f8306116101105780634b1f8306146101ab57806351373889146101b45780635c975abb146101bd57806361d027b3146101d35780636817031b146101fe5780636defd22614610211575f80fd5b806305caa89b1461014c5780631bb19ac11461016157806321ad0eb5146101745780632e5b2168146101875780633f4ba83a146101a3575b5f80fd5b61015f61015a366004611189565b61032a565b005b61015f61016f3660046111b2565b61040d565b61015f6101823660046111b2565b610576565b610190600a5481565b6040519081526020015b60405180910390f35b61015f61073d565b61019060065481565b61019060055481565b60025460ff16604051901515815260200161019a565b6003546101e6906001600160a01b031681565b6040516001600160a01b03909116815260200161019a565b61015f61020c3660046111d2565b61074f565b61015f61021f36600461120e565b610791565b61015f610849565b61015f61085a565b61015f6102423660046111b2565b61086a565b5f546001600160a01b03166101e6565b61019060095481565b6101e67f000000000000000000000000000000000000000000000000000000000000000081565b61015f6102953660046111b2565b6109a8565b61015f6102a83660046111d2565b610a03565b61015f6102bb3660046111d2565b610a3f565b61019060075481565b6004546102ed9061ffff808216916201000081048216916401000000009091041683565b6040805161ffff9485168152928416602084015292169181019190915260600161019a565b6002546101e69061010090046001600160a01b031681565b610332610a7c565b5f8161033e8486611262565b6103489190611262565b905061037f6001600160a01b037f000000000000000000000000000000000000000000000000000000000000000016333084610aa8565b8360055f8282546103909190611262565b925050819055508260065f8282546103a89190611262565b925050819055508160075f8282546103c09190611262565b909155505060408051858152602081018590529081018390527fbfeec844b52f79f44e0430967dcfc7f594e8c5800bd012b4be9de8c4c7086f62906060015b60405180910390a150505050565b610415610b15565b61041d610b39565b61042682610b63565b5f61043083610be5565b905061043b81610d47565b5f6127106104493385610e1b565b6104539190611289565b60408051622820a760e91b81526020810187905290810182905290915033907f46a115454d736192d13c1ff4cc84234a543e13b0c5229b4c149527491676cf319060600160405180910390a2600a81101561052057600780545f9091556104ba3382610e85565b60408051622820a760e91b815260606020820181905260059082015264515549434b60d81b608082015290810182905233907f6c19ac03d3aff0dbcecbb348dd527fee73b8210fbd4d0ec375d61656e47d42179060a0015b60405180910390a250610567565b60d281101561054e5761054933600261053a87600761129c565b61054491906112b3565b610e85565b610567565b6108a2811015610567576105673361054486600261129c565b505061057260018055565b5050565b61057e610b15565b610586610b39565b61058f82610b63565b5f61059983610be5565b90506105a481610d47565b5f6105af3384610e1b565b6040805164534c4f545360d81b81526020810187905290810182905290915033907f46a115454d736192d13c1ff4cc84234a543e13b0c5229b4c149527491676cf319060600160405180910390a25f610609600683611289565b90505f600661061881856112b3565b6106229190611289565b90505f60066106326024866112b3565b61063c9190611289565b90505f61064c620f424086611289565b905080610309036106db57600580545f9091556106693382610e85565b6040805164534c4f545360d81b8152606060208201819052600a90820152694d4f544845524c4f444560b01b608082015290810182905233907f6c19ac03d3aff0dbcecbb348dd527fee73b8210fbd4d0ec375d61656e47d42179060a00160405180910390a250505050505050610734565b82841480156106e957508183145b15610702576106fd336105448a600a61129c565b61072d565b8284148061070f57508183145b8061071957508184145b1561072d5761072d336105448a600361129c565b5050505050505b61057260018055565b610745610a7c565b61074d610ebf565b565b610757610a7c565b6001600160a01b038116610769575f80fd5b600280546001600160a01b0390921661010002610100600160a81b0319909216919091179055565b610799610a7c565b806107a483856112c6565b6107ae91906112c6565b61ffff16612710146107f35760405162461bcd60e51b8152602060048201526009602482015268189859081cdc1b1a5d60ba1b60448201526064015b60405180910390fd5b6040805160608101825261ffff948516808252938516602082018190529290941693018390526004805463ffffffff1916909217620100009091021765ffff000000001916640100000000909202919091179055565b610851610a7c565b61074d5f610f11565b610862610a7c565b61074d610f60565b610872610b15565b61087a610b39565b61088382610b63565b5f61088d83610be5565b905061089881610d47565b5f6127106108a63385610e1b565b6108b09190611289565b60408051634d494e4560e01b81526020810187905290810182905290915033907f46a115454d736192d13c1ff4cc84234a543e13b0c5229b4c149527491676cf319060600160405180910390a2600281101561097557600680545f9091556109183382610e85565b60408051634d494e4560e01b8152606060208201819052600590820152644c55434b5960d81b608082015290810182905233907f6c19ac03d3aff0dbcecbb348dd527fee73b8210fbd4d0ec375d61656e47d42179060a001610512565b606681101561098d576105493361054486600561129c565b6103868110156105675761056733600261053a87600361129c565b6109b0610a7c565b5f821180156109bf5750818110155b6109f85760405162461bcd60e51b815260206004820152600a60248201526962616420626f756e647360b01b60448201526064016107ea565b600991909155600a55565b610a0b610a7c565b6001600160a01b038116610a1d575f80fd5b600380546001600160a01b0319166001600160a01b0392909216919091179055565b610a47610a7c565b6001600160a01b038116610a7057604051631e4fbdf760e01b81525f60048201526024016107ea565b610a7981610f11565b50565b5f546001600160a01b0316331461074d5760405163118cdaa760e01b81523360048201526024016107ea565b6040516001600160a01b038481166024830152838116604483015260648201839052610b0f9186918216906323b872dd906084015b604051602081830303815290604052915060e01b6020820180516001600160e01b038381831617835250505050610f9d565b50505050565b60025460ff161561074d5760405163d93c066560e01b815260040160405180910390fd5b600260015403610b5c57604051633ee5aeb560e01b815260040160405180910390fd5b6002600155565b6009548110158015610b775750600a548111155b610bb05760405162461bcd60e51b815260206004820152600a60248201526962657420626f756e647360b01b60448201526064016107ea565b610a796001600160a01b037f000000000000000000000000000000000000000000000000000000000000000016333084610aa8565b6004545f90819061271090610c049062010000900461ffff168561129c565b610c0e91906112b3565b6004549091505f9061271090610c3090640100000000900461ffff168661129c565b610c3a91906112b3565b905080610c4783866112e8565b610c5191906112e8565b92508115610ccc57600254610c98906001600160a01b037f000000000000000000000000000000000000000000000000000000000000000081169161010090041684611003565b6040518281527fbdf04d6f0ea93bbb685112d2309fd0fc23db0d4a344bb48e87bf4c771153c47f9060200160405180910390a15b8015610d4057600354610d0c906001600160a01b037f00000000000000000000000000000000000000000000000000000000000000008116911683611003565b6040518181527f7f093c2c20f77cc814d0383c03d994b9b13397ea20f42551451768c7a306f6fc9060200160405180910390a15b5050919050565b5f612710610d5783611b5861129c565b610d6191906112b3565b90505f612710610d73846109c461129c565b610d7d91906112b3565b90505f81610d8b84866112e8565b610d9591906112e8565b90508260055f828254610da89190611262565b925050819055508160065f828254610dc09190611262565b925050819055508060075f828254610dd89190611262565b909155505060408051848152602081018490529081018290527fbfeec844b52f79f44e0430967dcfc7f594e8c5800bd012b4be9de8c4c7086f62906060016103ff565b6008805460010190819055604080514460208201524291810191909152606084811b6bffffffffffffffffffffffff1916908201526074810183905260948101919091525f9060b401604051602081830303815290604052805190602001205f1c90505b92915050565b8015610572576105726001600160a01b037f0000000000000000000000000000000000000000000000000000000000000000168383611003565b610ec7611034565b6002805460ff191690557f5db9ee0a495bf2e6ff9c91a7834c1ba4fdd244a5e8aa4e537bd38aeae4b073aa335b6040516001600160a01b03909116815260200160405180910390a1565b5f80546001600160a01b038381166001600160a01b0319831681178455604051919092169283917f8be0079c531659141344cd1fd0a4f28419497f9722a3daafe3b4186f6b6457e09190a35050565b610f68610b15565b6002805460ff191660011790557f62e78cea01bee320cd4e420270b5ea74000d11b0c9f74754ebdbfc544b05a258610ef43390565b5f610fb16001600160a01b03841683611057565b905080515f14158015610fd5575080806020019051810190610fd391906112fb565b155b15610ffe57604051635274afe760e01b81526001600160a01b03841660048201526024016107ea565b505050565b6040516001600160a01b03838116602483015260448201839052610ffe91859182169063a9059cbb90606401610add565b60025460ff1661074d57604051638dfc202b60e01b815260040160405180910390fd5b606061106483835f61106b565b9392505050565b6060814710156110905760405163cd78605960e01b81523060048201526024016107ea565b5f80856001600160a01b031684866040516110ab919061131a565b5f6040518083038185875af1925050503d805f81146110e5576040519150601f19603f3d011682016040523d82523d5f602084013e6110ea565b606091505b50915091506110fa868383611104565b9695505050505050565b6060826111195761111482611160565b611064565b815115801561113057506001600160a01b0384163b155b1561115957604051639996b31560e01b81526001600160a01b03851660048201526024016107ea565b5080611064565b8051156111705780518082602001fd5b604051630a12f52160e11b815260040160405180910390fd5b5f805f6060848603121561119b575f80fd5b505081359360208301359350604090920135919050565b5f80604083850312156111c3575f80fd5b50508035926020909101359150565b5f602082840312156111e2575f80fd5b81356001600160a01b0381168114611064575f80fd5b803561ffff81168114611209575f80fd5b919050565b5f805f60608486031215611220575f80fd5b611229846111f8565b9250611237602085016111f8565b9150611245604085016111f8565b90509250925092565b634e487b7160e01b5f52601160045260245ffd5b80820180821115610e7f57610e7f61124e565b634e487b7160e01b5f52601260045260245ffd5b5f8261129757611297611275565b500690565b8082028115828204841417610e7f57610e7f61124e565b5f826112c1576112c1611275565b500490565b61ffff8181168382160190808211156112e1576112e161124e565b5092915050565b81810381811115610e7f57610e7f61124e565b5f6020828403121561130b575f80fd5b81518015158114611064575f80fd5b5f82515f5b81811015611339576020818601810151858301520161131f565b505f92019182525091905056fea2646970667358221220708415210f8476147d1dcdc31ffc5e45758f08c69fb94bd1adac4b1cbcc0239464736f6c63430008180033","linkReferences":{}},"methodIdentifiers":{"bgld()":"96f8c5c1","jackpotLucky()":"4b1f8306","jackpotMotherlode()":"51373889","jackpotQuick()":"f56ae799","maxBet()":"2e5b2168","minBet()":"9619367d","owner()":"8da5cb5b","pause()":"8456cb59","paused()":"5c975abb","playMine(uint256,uint256)":"8d69c8d8","playPan(uint256,uint256)":"1bb19ac1","playSlots(uint256,uint256)":"21ad0eb5","renounceOwnership()":"715018a6","seedJackpots(uint256,uint256,uint256)":"05caa89b","setMinMax(uint256,uint256)":"a681f950","setSplit(uint16,uint16,uint16)":"6defd226","setTreasury(address)":"f0f44260","setVault(address)":"6817031b","split()":"f7654176","transferOwnership(address)":"f2fde38b","treasury()":"61d027b3","unpause()":"3f4ba83a","vault()":"fbfa77cf"},"id":0}