{"abi":[{"type":"constructor","inputs":[],"stateMutability":"nonpayable"},{"type":"function","name":"FAUCET_COOLDOWN","inputs":[],"outputs":[{"name":"","type":"uint256","internalType":"uint256"}],"stateMutability":"view"},{"type":"function","name":"FAUCET_MAX","inputs":[],"outputs":[{"name":"","type":"uint256","internalType":"uint256"}],"stateMutability":"view"},{"type":"function","name":"allowance","inputs":[{"name":"owner","type":"address","internalType":"address"},{"name":"spender","type":"address","internalType":"address"}],"outputs":[{"name":"","type":"uint256","internalType":"uint256"}],"stateMutability":"view"},{"type":"function","name":"approve","inputs":[{"name":"spender","type":"address","internalType":"address"},{"name":"value","type":"uint256","internalType":"uint256"}],"outputs":[{"name":"","type":"bool","internalType":"bool"}],"stateMutability":"nonpayable"},{"type":"function","name":"balanceOf","inputs":[{"name":"account","type":"address","internalType":"address"}],"outputs":[{"name":"","type":"uint256","internalType":"uint256"}],"stateMutability":"view"},{"type":"function","name":"decimals","inputs":[],"outputs":[{"name":"","type":"uint8","internalType":"uint8"}],"stateMutability":"view"},{"type":"function","name":"faucetEnabled","inputs":[],"outputs":[{"name":"","type":"bool","internalType":"bool"}],"stateMutability":"view"},{"type":"function","name":"faucetMint","inputs":[{"name":"amount","type":"uint256","internalType":"uint256"}],"outputs":[],"stateMutability":"nonpayable"},{"type":"function","name":"lastMintAt","inputs":[{"name":"","type":"address","internalType":"address"}],"outputs":[{"name":"","type":"uint256","internalType":"uint256"}],"stateMutability":"view"},{"type":"function","name":"mint","inputs":[{"name":"to","type":"address","internalType":"address"},{"name":"amount","type":"uint256","internalType":"uint256"}],"outputs":[],"stateMutability":"nonpayable"},{"type":"function","name":"name","inputs":[],"outputs":[{"name":"","type":"string","internalType":"string"}],"stateMutability":"view"},{"type":"function","name":"owner","inputs":[],"outputs":[{"name":"","type":"address","internalType":"address"}],"stateMutability":"view"},{"type":"function","name":"renounceOwnership","inputs":[],"outputs":[],"stateMutability":"nonpayable"},{"type":"function","name":"setFaucetEnabled","inputs":[{"name":"on","type":"bool","internalType":"bool"}],"outputs":[],"stateMutability":"nonpayable"},{"type":"function","name":"symbol","inputs":[],"outputs":[{"name":"","type":"string","internalType":"string"}],"stateMutability":"view"},{"type":"function","name":"totalSupply","inputs":[],"outputs":[{"name":"","type":"uint256","internalType":"uint256"}],"stateMutability":"view"},{"type":"function","name":"transfer","inputs":[{"name":"to","type":"address","internalType":"address"},{"name":"value","type":"uint256","internalType":"uint256"}],"outputs":[{"name":"","type":"bool","internalType":"bool"}],"stateMutability":"nonpayable"},{"type":"function","name":"transferFrom","inputs":[{"name":"from","type":"address","internalType":"address"},{"name":"to","type":"address","internalType":"address"},{"name":"value","type":"uint256","internalType":"uint256"}],"outputs":[{"name":"","type":"bool","internalType":"bool"}],"stateMutability":"nonpayable"},{"type":"function","name":"transferOwnership","inputs":[{"name":"newOwner","type":"address","internalType":"address"}],"outputs":[],"stateMutability":"nonpayable"},{"type":"event","name":"Approval","inputs":[{"name":"owner","type":"address","indexed":true,"internalType":"address"},{"name":"spender","type":"address","indexed":true,"internalType":"address"},{"name":"value","type":"uint256","indexed":false,"internalType":"uint256"}],"anonymous":false},{"type":"event","name":"OwnershipTransferred","inputs":[{"name":"previousOwner","type":"address","indexed":true,"internalType":"address"},{"name":"newOwner","type":"address","indexed":true,"internalType":"address"}],"anonymous":false},{"type":"event","name":"Transfer","inputs":[{"name":"from","type":"address","indexed":true,"internalType":"address"},{"name":"to","type":"address","indexed":true,"internalType":"address"},{"name":"value","type":"uint256","indexed":false,"internalType":"uint256"}],"anonymous":false},{"type":"error","name":"ERC20InsufficientAllowance","inputs":[{"name":"spender","type":"address","internalType":"address"},{"name":"allowance","type":"uint256","internalType":"uint256"},{"name":"needed","type":"uint256","internalType":"uint256"}]},{"type":"error","name":"ERC20InsufficientBalance","inputs":[{"name":"sender","type":"address","internalType":"address"},{"name":"balance","type":"uint256","internalType":"uint256"},{"name":"needed","type":"uint256","internalType":"uint256"}]},{"type":"error","name":"ERC20InvalidApprover","inputs":[{"name":"approver","type":"address","internalType":"address"}]},{"type":"error","name":"ERC20InvalidReceiver","inputs":[{"name":"receiver","type":"address","internalType":"address"}]},{"type":"error","name":"ERC20InvalidSender","inputs":[{"name":"sender","type":"address","internalType":"address"}]},{"type":"error","name":"ERC20InvalidSpender","inputs":[{"name":"spender","type":"address","internalType":"address"}]},{"type":"error","name":"OwnableInvalidOwner","inputs":[{"name":"owner","type":"address","internalType":"address"}]},{"type":"error","name":"OwnableUnauthorizedAccount","inputs":[{"name":"account","type":"address","internalType":"address"}]}],"bytecode":{"object":"0x60806040526005805460ff60a01b1916600160a01b17905534801562000023575f80fd5b50336040518060400160405280601081526020016f4261736520476f6c6420284d6f636b2960801b815250604051806040016040528060048152602001631091d31160e21b81525081600390816200007c9190620001bd565b5060046200008b8282620001bd565b5050506001600160a01b038116620000bc57604051631e4fbdf760e01b81525f600482015260240160405180910390fd5b620000c781620000ce565b5062000289565b600580546001600160a01b038381166001600160a01b0319831681179093556040519116919082907f8be0079c531659141344cd1fd0a4f28419497f9722a3daafe3b4186f6b6457e0905f90a35050565b634e487b7160e01b5f52604160045260245ffd5b600181811c908216806200014857607f821691505b6020821081036200016757634e487b7160e01b5f52602260045260245ffd5b50919050565b601f821115620001b857805f5260205f20601f840160051c81016020851015620001945750805b601f840160051c820191505b81811015620001b5575f8155600101620001a0565b50505b505050565b81516001600160401b03811115620001d957620001d96200011f565b620001f181620001ea845462000133565b846200016d565b602080601f83116001811462000227575f84156200020f5750858301515b5f19600386901b1c1916600185901b17855562000281565b5f85815260208120601f198616915b82811015620002575788860151825594840194600190910190840162000236565b50858210156200027557878501515f19600388901b60f8161c191681555b505060018460011b0185555b505050505050565b610ae680620002975f395ff3fe608060405234801561000f575f80fd5b506004361061011c575f3560e01c8063715018a6116100a9578063a9059cbb1161006e578063a9059cbb1461024d578063b21970f914610260578063d818195114610271578063dd62ed3e14610284578063f2fde38b146102bc575f80fd5b8063715018a6146102055780637d1d5d191461020d5780638da5cb5b146102175780638f303e961461023257806395d89b4114610245575f80fd5b8063313ce567116100ef578063313ce56714610186578063384c40ba1461019557806340c10f19146101b45780635d1c3f04146101c957806370a08231146101dd575f80fd5b806306fdde0314610120578063095ea7b31461013e57806318160ddd1461016157806323b872dd14610173575b5f80fd5b6101286102cf565b60405161013591906108ef565b60405180910390f35b61015161014c366004610956565b61035f565b6040519015158152602001610135565b6002545b604051908152602001610135565b61015161018136600461097e565b610378565b60405160128152602001610135565b6101656101a33660046109b7565b60066020525f908152604090205481565b6101c76101c2366004610956565b61039b565b005b60055461015190600160a01b900460ff1681565b6101656101eb3660046109b7565b6001600160a01b03165f9081526020819052604090205490565b6101c76103b1565b6101656201518081565b6005546040516001600160a01b039091168152602001610135565b6101c76102403660046109d7565b6103c4565b6101286103ea565b61015161025b366004610956565b6103f9565b61016569021e19e0c9bab240000081565b6101c761027f3660046109f6565b610406565b610165610292366004610a0d565b6001600160a01b039182165f90815260016020908152604080832093909416825291909152205490565b6101c76102ca3660046109b7565b61051e565b6060600380546102de90610a3e565b80601f016020809104026020016040519081016040528092919081815260200182805461030a90610a3e565b80156103555780601f1061032c57610100808354040283529160200191610355565b820191905f5260205f20905b81548152906001019060200180831161033857829003601f168201915b5050505050905090565b5f3361036c81858561055b565b60019150505b92915050565b5f3361038585828561056d565b6103908585856105e8565b506001949350505050565b6103a3610645565b6103ad8282610672565b5050565b6103b9610645565b6103c25f6106a6565b565b6103cc610645565b60058054911515600160a01b0260ff60a01b19909216919091179055565b6060600480546102de90610a3e565b5f3361036c8185856105e8565b600554600160a01b900460ff166104565760405162461bcd60e51b815260206004820152600f60248201526e19985d58d95d08191a5cd8589b1959608a1b60448201526064015b60405180910390fd5b5f8111801561046f575069021e19e0c9bab24000008111155b6104ad5760405162461bcd60e51b815260206004820152600f60248201526e0c2dadeeadce840e8dede40d0d2ced608b1b604482015260640161044d565b335f90815260066020526040902054620151806104ca8242610a8a565b10156105035760405162461bcd60e51b815260206004820152600860248201526731b7b7b63237bbb760c11b604482015260640161044d565b335f8181526006602052604090204290556103ad9083610672565b610526610645565b6001600160a01b03811661054f57604051631e4fbdf760e01b81525f600482015260240161044d565b610558816106a6565b50565b61056883838360016106f7565b505050565b6001600160a01b038381165f908152600160209081526040808320938616835292905220545f1981146105e257818110156105d457604051637dc7a0d960e11b81526001600160a01b0384166004820152602481018290526044810183905260640161044d565b6105e284848484035f6106f7565b50505050565b6001600160a01b03831661061157604051634b637e8f60e11b81525f600482015260240161044d565b6001600160a01b03821661063a5760405163ec442f0560e01b81525f600482015260240161044d565b6105688383836107c9565b6005546001600160a01b031633146103c25760405163118cdaa760e01b815233600482015260240161044d565b6001600160a01b03821661069b5760405163ec442f0560e01b81525f600482015260240161044d565b6103ad5f83836107c9565b600580546001600160a01b038381166001600160a01b0319831681179093556040519116919082907f8be0079c531659141344cd1fd0a4f28419497f9722a3daafe3b4186f6b6457e0905f90a35050565b6001600160a01b0384166107205760405163e602df0560e01b81525f600482015260240161044d565b6001600160a01b03831661074957604051634a1406b160e11b81525f600482015260240161044d565b6001600160a01b038085165f90815260016020908152604080832093871683529290522082905580156105e257826001600160a01b0316846001600160a01b03167f8c5be1e5ebec7d5bd14f71427d1e84f3dd0314c0f7b2291e5b200ac8c7c3b925846040516107bb91815260200190565b60405180910390a350505050565b6001600160a01b0383166107f3578060025f8282546107e89190610a9d565b909155506108639050565b6001600160a01b0383165f90815260208190526040902054818110156108455760405163391434e360e21b81526001600160a01b0385166004820152602481018290526044810183905260640161044d565b6001600160a01b0384165f9081526020819052604090209082900390555b6001600160a01b03821661087f5760028054829003905561089d565b6001600160a01b0382165f9081526020819052604090208054820190555b816001600160a01b0316836001600160a01b03167fddf252ad1be2c89b69c2b068fc378daa952ba7f163c4a11628f55a4df523b3ef836040516108e291815260200190565b60405180910390a3505050565b5f602080835283518060208501525f5b8181101561091b578581018301518582016040015282016108ff565b505f604082860101526040601f19601f8301168501019250505092915050565b80356001600160a01b0381168114610951575f80fd5b919050565b5f8060408385031215610967575f80fd5b6109708361093b565b946020939093013593505050565b5f805f60608486031215610990575f80fd5b6109998461093b565b92506109a76020850161093b565b9150604084013590509250925092565b5f602082840312156109c7575f80fd5b6109d08261093b565b9392505050565b5f602082840312156109e7575f80fd5b813580151581146109d0575f80fd5b5f60208284031215610a06575f80fd5b5035919050565b5f8060408385031215610a1e575f80fd5b610a278361093b565b9150610a356020840161093b565b90509250929050565b600181811c90821680610a5257607f821691505b602082108103610a7057634e487b7160e01b5f52602260045260245ffd5b50919050565b634e487b7160e01b5f52601160045260245ffd5b8181038181111561037257610372610a76565b8082018082111561037257610372610a7656fea26469706673582212208d418cc0747597f21c0ff2355749b439abd77abd0614007a6960a015c83ddedc64736f6c63430008180033","linkReferences":{}},"methodIdentifiers":{"FAUCET_COOLDOWN()":"7d1d5d19","FAUCET_MAX()":"b21970f9","allowance(address,address)":"dd62ed3e","approve(address,uint256)":"095ea7b3","balanceOf(address)":"70a08231","decimals()":"313ce567","faucetEnabled()":"5d1c3f04","faucetMint(uint256)":"d8181951","lastMintAt(address)":"384c40ba","mint(address,uint256)":"40c10f19","name()":"06fdde03","owner()":"8da5cb5b","renounceOwnership()":"715018a6","setFaucetEnabled(bool)":"8f303e96","symbol()":"95d89b41","totalSupply()":"18160ddd","transfer(address,uint256)":"a9059cbb","transferFrom(address,address,uint256)":"23b872dd","transferOwnership(address)":"f2fde38b"},"id":1}